{
  "_format": "hh-sol-artifact-1",
  "contractName": "ZoraNFT",
  "sourceName": "contracts/ZoraNFT.sol",
  "abi": [
    {
      "inputs": [
        {
          "internalType": "string",
          "name": "_name",
          "type": "string"
        },
        {
          "internalType": "string",
          "name": "_symbol",
          "type": "string"
        }
      ],
      "stateMutability": "nonpayable",
      "type": "constructor"
    },
    {
      "inputs": [
        {
          "internalType": "address",
          "name": "sender",
          "type": "address"
        },
        {
          "internalType": "uint256",
          "name": "balance",
          "type": "uint256"
        },
        {
          "internalType": "uint256",
          "name": "needed",
          "type": "uint256"
        },
        {
          "internalType": "uint256",
          "name": "tokenId",
          "type": "uint256"
        }
      ],
      "name": "ERC1155InsufficientBalance",
      "type": "error"
    },
    {
      "inputs": [
        {
          "internalType": "address",
          "name": "approver",
          "type": "address"
        }
      ],
      "name": "ERC1155InvalidApprover",
      "type": "error"
    },
    {
      "inputs": [
        {
          "internalType": "uint256",
          "name": "idsLength",
          "type": "uint256"
        },
        {
          "internalType": "uint256",
          "name": "valuesLength",
          "type": "uint256"
        }
      ],
      "name": "ERC1155InvalidArrayLength",
      "type": "error"
    },
    {
      "inputs": [
        {
          "internalType": "address",
          "name": "operator",
          "type": "address"
        }
      ],
      "name": "ERC1155InvalidOperator",
      "type": "error"
    },
    {
      "inputs": [
        {
          "internalType": "address",
          "name": "receiver",
          "type": "address"
        }
      ],
      "name": "ERC1155InvalidReceiver",
      "type": "error"
    },
    {
      "inputs": [
        {
          "internalType": "address",
          "name": "sender",
          "type": "address"
        }
      ],
      "name": "ERC1155InvalidSender",
      "type": "error"
    },
    {
      "inputs": [
        {
          "internalType": "address",
          "name": "operator",
          "type": "address"
        },
        {
          "internalType": "address",
          "name": "owner",
          "type": "address"
        }
      ],
      "name": "ERC1155MissingApprovalForAll",
      "type": "error"
    },
    {
      "inputs": [
        {
          "internalType": "address",
          "name": "owner",
          "type": "address"
        }
      ],
      "name": "OwnableInvalidOwner",
      "type": "error"
    },
    {
      "inputs": [
        {
          "internalType": "address",
          "name": "account",
          "type": "address"
        }
      ],
      "name": "OwnableUnauthorizedAccount",
      "type": "error"
    },
    {
      "anonymous": false,
      "inputs": [
        {
          "indexed": true,
          "internalType": "address",
          "name": "account",
          "type": "address"
        },
        {
          "indexed": true,
          "internalType": "address",
          "name": "operator",
          "type": "address"
        },
        {
          "indexed": false,
          "internalType": "bool",
          "name": "approved",
          "type": "bool"
        }
      ],
      "name": "ApprovalForAll",
      "type": "event"
    },
    {
      "anonymous": false,
      "inputs": [
        {
          "indexed": true,
          "internalType": "address",
          "name": "previousOwner",
          "type": "address"
        },
        {
          "indexed": true,
          "internalType": "address",
          "name": "newOwner",
          "type": "address"
        }
      ],
      "name": "OwnershipTransferred",
      "type": "event"
    },
    {
      "anonymous": false,
      "inputs": [
        {
          "indexed": true,
          "internalType": "address",
          "name": "operator",
          "type": "address"
        },
        {
          "indexed": true,
          "internalType": "address",
          "name": "from",
          "type": "address"
        },
        {
          "indexed": true,
          "internalType": "address",
          "name": "to",
          "type": "address"
        },
        {
          "indexed": false,
          "internalType": "uint256[]",
          "name": "ids",
          "type": "uint256[]"
        },
        {
          "indexed": false,
          "internalType": "uint256[]",
          "name": "values",
          "type": "uint256[]"
        }
      ],
      "name": "TransferBatch",
      "type": "event"
    },
    {
      "anonymous": false,
      "inputs": [
        {
          "indexed": true,
          "internalType": "address",
          "name": "operator",
          "type": "address"
        },
        {
          "indexed": true,
          "internalType": "address",
          "name": "from",
          "type": "address"
        },
        {
          "indexed": true,
          "internalType": "address",
          "name": "to",
          "type": "address"
        },
        {
          "indexed": false,
          "internalType": "uint256",
          "name": "id",
          "type": "uint256"
        },
        {
          "indexed": false,
          "internalType": "uint256",
          "name": "value",
          "type": "uint256"
        }
      ],
      "name": "TransferSingle",
      "type": "event"
    },
    {
      "anonymous": false,
      "inputs": [
        {
          "indexed": false,
          "internalType": "string",
          "name": "value",
          "type": "string"
        },
        {
          "indexed": true,
          "internalType": "uint256",
          "name": "id",
          "type": "uint256"
        }
      ],
      "name": "URI",
      "type": "event"
    },
    {
      "inputs": [
        {
          "internalType": "address",
          "name": "account",
          "type": "address"
        },
        {
          "internalType": "uint256",
          "name": "id",
          "type": "uint256"
        }
      ],
      "name": "balanceOf",
      "outputs": [
        {
          "internalType": "uint256",
          "name": "",
          "type": "uint256"
        }
      ],
      "stateMutability": "view",
      "type": "function"
    },
    {
      "inputs": [
        {
          "internalType": "address[]",
          "name": "accounts",
          "type": "address[]"
        },
        {
          "internalType": "uint256[]",
          "name": "ids",
          "type": "uint256[]"
        }
      ],
      "name": "balanceOfBatch",
      "outputs": [
        {
          "internalType": "uint256[]",
          "name": "",
          "type": "uint256[]"
        }
      ],
      "stateMutability": "view",
      "type": "function"
    },
    {
      "inputs": [
        {
          "internalType": "address",
          "name": "account",
          "type": "address"
        },
        {
          "internalType": "address",
          "name": "operator",
          "type": "address"
        }
      ],
      "name": "isApprovedForAll",
      "outputs": [
        {
          "internalType": "bool",
          "name": "",
          "type": "bool"
        }
      ],
      "stateMutability": "view",
      "type": "function"
    },
    {
      "inputs": [
        {
          "internalType": "address",
          "name": "to",
          "type": "address"
        },
        {
          "internalType": "uint256",
          "name": "tokenId",
          "type": "uint256"
        },
        {
          "internalType": "uint256",
          "name": "amount",
          "type": "uint256"
        },
        {
          "internalType": "string",
          "name": "tokenURI",
          "type": "string"
        }
      ],
      "name": "mint",
      "outputs": [],
      "stateMutability": "nonpayable",
      "type": "function"
    },
    {
      "inputs": [],
      "name": "name",
      "outputs": [
        {
          "internalType": "string",
          "name": "",
          "type": "string"
        }
      ],
      "stateMutability": "view",
      "type": "function"
    },
    {
      "inputs": [],
      "name": "owner",
      "outputs": [
        {
          "internalType": "address",
          "name": "",
          "type": "address"
        }
      ],
      "stateMutability": "view",
      "type": "function"
    },
    {
      "inputs": [],
      "name": "renounceOwnership",
      "outputs": [],
      "stateMutability": "nonpayable",
      "type": "function"
    },
    {
      "inputs": [
        {
          "internalType": "address",
          "name": "from",
          "type": "address"
        },
        {
          "internalType": "address",
          "name": "to",
          "type": "address"
        },
        {
          "internalType": "uint256[]",
          "name": "ids",
          "type": "uint256[]"
        },
        {
          "internalType": "uint256[]",
          "name": "values",
          "type": "uint256[]"
        },
        {
          "internalType": "bytes",
          "name": "data",
          "type": "bytes"
        }
      ],
      "name": "safeBatchTransferFrom",
      "outputs": [],
      "stateMutability": "nonpayable",
      "type": "function"
    },
    {
      "inputs": [
        {
          "internalType": "address",
          "name": "from",
          "type": "address"
        },
        {
          "internalType": "address",
          "name": "to",
          "type": "address"
        },
        {
          "internalType": "uint256",
          "name": "id",
          "type": "uint256"
        },
        {
          "internalType": "uint256",
          "name": "value",
          "type": "uint256"
        },
        {
          "internalType": "bytes",
          "name": "data",
          "type": "bytes"
        }
      ],
      "name": "safeTransferFrom",
      "outputs": [],
      "stateMutability": "nonpayable",
      "type": "function"
    },
    {
      "inputs": [
        {
          "internalType": "address",
          "name": "operator",
          "type": "address"
        },
        {
          "internalType": "bool",
          "name": "approved",
          "type": "bool"
        }
      ],
      "name": "setApprovalForAll",
      "outputs": [],
      "stateMutability": "nonpayable",
      "type": "function"
    },
    {
      "inputs": [
        {
          "internalType": "uint256",
          "name": "tokenId",
          "type": "uint256"
        },
        {
          "internalType": "string",
          "name": "tokenURI",
          "type": "string"
        }
      ],
      "name": "setURI",
      "outputs": [],
      "stateMutability": "nonpayable",
      "type": "function"
    },
    {
      "inputs": [
        {
          "internalType": "bytes4",
          "name": "interfaceId",
          "type": "bytes4"
        }
      ],
      "name": "supportsInterface",
      "outputs": [
        {
          "internalType": "bool",
          "name": "",
          "type": "bool"
        }
      ],
      "stateMutability": "view",
      "type": "function"
    },
    {
      "inputs": [],
      "name": "symbol",
      "outputs": [
        {
          "internalType": "string",
          "name": "",
          "type": "string"
        }
      ],
      "stateMutability": "view",
      "type": "function"
    },
    {
      "inputs": [
        {
          "internalType": "address",
          "name": "newOwner",
          "type": "address"
        }
      ],
      "name": "transferOwnership",
      "outputs": [],
      "stateMutability": "nonpayable",
      "type": "function"
    },
    {
      "inputs": [
        {
          "internalType": "uint256",
          "name": "tokenId",
          "type": "uint256"
        }
      ],
      "name": "uri",
      "outputs": [
        {
          "internalType": "string",
          "name": "",
          "type": "string"
        }
      ],
      "stateMutability": "view",
      "type": "function"
    }
  ],
  "bytecode": "0x60806040523480156200001157600080fd5b50604051620031393803806200313983398181016040528101906200003791906200037b565b336040518060200160405280600081525062000059816200010d60201b60201c565b50600073ffffffffffffffffffffffffffffffffffffffff168173ffffffffffffffffffffffffffffffffffffffff1603620000cf5760006040517f1e4fbdf7000000000000000000000000000000000000000000000000000000008152600401620000c6919062000445565b60405180910390fd5b620000e0816200012260201b60201c565b508160049081620000f29190620006ad565b508060059081620001049190620006ad565b50505062000794565b80600290816200011e9190620006ad565b5050565b6000600360009054906101000a900473ffffffffffffffffffffffffffffffffffffffff16905081600360006101000a81548173ffffffffffffffffffffffffffffffffffffffff021916908373ffffffffffffffffffffffffffffffffffffffff1602179055508173ffffffffffffffffffffffffffffffffffffffff168173ffffffffffffffffffffffffffffffffffffffff167f8be0079c531659141344cd1fd0a4f28419497f9722a3daafe3b4186f6b6457e060405160405180910390a35050565b6000604051905090565b600080fd5b600080fd5b600080fd5b600080fd5b6000601f19601f8301169050919050565b7f4e487b7100000000000000000000000000000000000000000000000000000000600052604160045260246000fd5b620002518262000206565b810181811067ffffffffffffffff8211171562000273576200027262000217565b5b80604052505050565b600062000288620001e8565b905062000296828262000246565b919050565b600067ffffffffffffffff821115620002b957620002b862000217565b5b620002c48262000206565b9050602081019050919050565b60005b83811015620002f1578082015181840152602081019050620002d4565b60008484015250505050565b6000620003146200030e846200029b565b6200027c565b90508281526020810184848401111562000333576200033262000201565b5b62000340848285620002d1565b509392505050565b600082601f83011262000360576200035f620001fc565b5b815162000372848260208601620002fd565b91505092915050565b60008060408385031215620003955762000394620001f2565b5b600083015167ffffffffffffffff811115620003b657620003b5620001f7565b5b620003c48582860162000348565b925050602083015167ffffffffffffffff811115620003e857620003e7620001f7565b5b620003f68582860162000348565b9150509250929050565b600073ffffffffffffffffffffffffffffffffffffffff82169050919050565b60006200042d8262000400565b9050919050565b6200043f8162000420565b82525050565b60006020820190506200045c600083018462000434565b92915050565b600081519050919050565b7f4e487b7100000000000000000000000000000000000000000000000000000000600052602260045260246000fd5b60006002820490506001821680620004b557607f821691505b602082108103620004cb57620004ca6200046d565b5b50919050565b60008190508160005260206000209050919050565b60006020601f8301049050919050565b600082821b905092915050565b600060088302620005357fffffffffffffffffffffffffffffffffffffffffffffffffffffffffffffffff82620004f6565b620005418683620004f6565b95508019841693508086168417925050509392505050565b6000819050919050565b6000819050919050565b60006200058e62000588620005828462000559565b62000563565b62000559565b9050919050565b6000819050919050565b620005aa836200056d565b620005c2620005b98262000595565b84845462000503565b825550505050565b600090565b620005d9620005ca565b620005e68184846200059f565b505050565b5b818110156200060e5762000602600082620005cf565b600181019050620005ec565b5050565b601f8211156200065d576200062781620004d1565b6200063284620004e6565b8101602085101562000642578190505b6200065a6200065185620004e6565b830182620005eb565b50505b505050565b600082821c905092915050565b6000620006826000198460080262000662565b1980831691505092915050565b60006200069d83836200066f565b9150826002028217905092915050565b620006b88262000462565b67ffffffffffffffff811115620006d457620006d362000217565b5b620006e082546200049c565b620006ed82828562000612565b600060209050601f83116001811462000725576000841562000710578287015190505b6200071c85826200068f565b8655506200078c565b601f1984166200073586620004d1565b60005b828110156200075f5784890151825560018201915060208501945060208101905062000738565b868310156200077f57848901516200077b601f8916826200066f565b8355505b6001600288020188555050505b505050505050565b61299580620007a46000396000f3fe608060405234801561001057600080fd5b50600436106100f45760003560e01c8063862440e211610097578063bb7fde7111610066578063bb7fde7114610271578063e985e9c51461028d578063f242432a146102bd578063f2fde38b146102d9576100f4565b8063862440e2146101fd5780638da5cb5b1461021957806395d89b4114610237578063a22cb46514610255576100f4565b80630e89341c116100d35780630e89341c146101775780632eb2c2d6146101a75780634e1273f4146101c3578063715018a6146101f3576100f4565b8062fdd58e146100f957806301ffc9a71461012957806306fdde0314610159575b600080fd5b610113600480360381019061010e919061197b565b6102f5565b60405161012091906119ca565b60405180910390f35b610143600480360381019061013e9190611a3d565b61034f565b6040516101509190611a85565b60405180910390f35b610161610431565b60405161016e9190611b30565b60405180910390f35b610191600480360381019061018c9190611b52565b6104bf565b60405161019e9190611b30565b60405180910390f35b6101c160048036038101906101bc9190611d7c565b610582565b005b6101dd60048036038101906101d89190611f0e565b61062a565b6040516101ea9190612044565b60405180910390f35b6101fb610739565b005b61021760048036038101906102129190612107565b61074d565b005b61022161077a565b60405161022e9190612172565b60405180910390f35b61023f6107a4565b60405161024c9190611b30565b60405180910390f35b61026f600480360381019061026a91906121b9565b610832565b005b61028b600480360381019061028691906121f9565b610848565b005b6102a760048036038101906102a2919061227c565b610892565b6040516102b49190611a85565b60405180910390f35b6102d760048036038101906102d291906122bc565b610926565b005b6102f360048036038101906102ee9190612353565b6109ce565b005b600080600083815260200190815260200160002060008473ffffffffffffffffffffffffffffffffffffffff1673ffffffffffffffffffffffffffffffffffffffff16815260200190815260200160002054905092915050565b60007fd9b67a26000000000000000000000000000000000000000000000000000000007bffffffffffffffffffffffffffffffffffffffffffffffffffffffff1916827bffffffffffffffffffffffffffffffffffffffffffffffffffffffff1916148061041a57507f0e89341c000000000000000000000000000000000000000000000000000000007bffffffffffffffffffffffffffffffffffffffffffffffffffffffff1916827bffffffffffffffffffffffffffffffffffffffffffffffffffffffff1916145b8061042a575061042982610a54565b5b9050919050565b6004805461043e906123af565b80601f016020809104026020016040519081016040528092919081815260200182805461046a906123af565b80156104b75780601f1061048c576101008083540402835291602001916104b7565b820191906000526020600020905b81548152906001019060200180831161049a57829003601f168201915b505050505081565b606060006006600084815260200190815260200160002080546104e1906123af565b80601f016020809104026020016040519081016040528092919081815260200182805461050d906123af565b801561055a5780601f1061052f5761010080835404028352916020019161055a565b820191906000526020600020905b81548152906001019060200180831161053d57829003601f168201915b5050505050905060008151116105785761057383610abe565b61057a565b805b915050919050565b600061058c610b52565b90508073ffffffffffffffffffffffffffffffffffffffff168673ffffffffffffffffffffffffffffffffffffffff16141580156105d157506105cf8682610892565b155b156106155780866040517fe237d92200000000000000000000000000000000000000000000000000000000815260040161060c9291906123e0565b60405180910390fd5b6106228686868686610b5a565b505050505050565b6060815183511461067657815183516040517f5b05999100000000000000000000000000000000000000000000000000000000815260040161066d929190612409565b60405180910390fd5b6000835167ffffffffffffffff81111561069357610692611b84565b5b6040519080825280602002602001820160405280156106c15781602001602082028036833780820191505090505b50905060005b845181101561072e576106fe6106e68287610c5290919063ffffffff16565b6106f98387610c6690919063ffffffff16565b6102f5565b82828151811061071157610710612432565b5b6020026020010181815250508061072790612490565b90506106c7565b508091505092915050565b610741610c7a565b61074b6000610d01565b565b610755610c7a565b806006600084815260200190815260200160002090816107759190612684565b505050565b6000600360009054906101000a900473ffffffffffffffffffffffffffffffffffffffff16905090565b600580546107b1906123af565b80601f01602080910402602001604051908101604052809291908181526020018280546107dd906123af565b801561082a5780601f106107ff5761010080835404028352916020019161082a565b820191906000526020600020905b81548152906001019060200180831161080d57829003601f168201915b505050505081565b61084461083d610b52565b8383610dc7565b5050565b610850610c7a565b61086b84848460405180602001604052806000815250610f37565b8060066000858152602001908152602001600020908161088b9190612684565b5050505050565b6000600160008473ffffffffffffffffffffffffffffffffffffffff1673ffffffffffffffffffffffffffffffffffffffff16815260200190815260200160002060008373ffffffffffffffffffffffffffffffffffffffff1673ffffffffffffffffffffffffffffffffffffffff16815260200190815260200160002060009054906101000a900460ff16905092915050565b6000610930610b52565b90508073ffffffffffffffffffffffffffffffffffffffff168673ffffffffffffffffffffffffffffffffffffffff161415801561097557506109738682610892565b155b156109b95780866040517fe237d9220000000000000000000000000000000000000000000000000000000081526004016109b09291906123e0565b60405180910390fd5b6109c68686868686610fd0565b505050505050565b6109d6610c7a565b600073ffffffffffffffffffffffffffffffffffffffff168173ffffffffffffffffffffffffffffffffffffffff1603610a485760006040517f1e4fbdf7000000000000000000000000000000000000000000000000000000008152600401610a3f9190612172565b60405180910390fd5b610a5181610d01565b50565b60007f01ffc9a7000000000000000000000000000000000000000000000000000000007bffffffffffffffffffffffffffffffffffffffffffffffffffffffff1916827bffffffffffffffffffffffffffffffffffffffffffffffffffffffff1916149050919050565b606060028054610acd906123af565b80601f0160208091040260200160405190810160405280929190818152602001828054610af9906123af565b8015610b465780601f10610b1b57610100808354040283529160200191610b46565b820191906000526020600020905b815481529060010190602001808311610b2957829003601f168201915b50505050509050919050565b600033905090565b600073ffffffffffffffffffffffffffffffffffffffff168473ffffffffffffffffffffffffffffffffffffffff1603610bcc5760006040517f57f447ce000000000000000000000000000000000000000000000000000000008152600401610bc39190612172565b60405180910390fd5b600073ffffffffffffffffffffffffffffffffffffffff168573ffffffffffffffffffffffffffffffffffffffff1603610c3e5760006040517f01a83514000000000000000000000000000000000000000000000000000000008152600401610c359190612172565b60405180910390fd5b610c4b85858585856110db565b5050505050565b600060208202602084010151905092915050565b600060208202602084010151905092915050565b610c82610b52565b73ffffffffffffffffffffffffffffffffffffffff16610ca061077a565b73ffffffffffffffffffffffffffffffffffffffff1614610cff57610cc3610b52565b6040517f118cdaa7000000000000000000000000000000000000000000000000000000008152600401610cf69190612172565b60405180910390fd5b565b6000600360009054906101000a900473ffffffffffffffffffffffffffffffffffffffff16905081600360006101000a81548173ffffffffffffffffffffffffffffffffffffffff021916908373ffffffffffffffffffffffffffffffffffffffff1602179055508173ffffffffffffffffffffffffffffffffffffffff168173ffffffffffffffffffffffffffffffffffffffff167f8be0079c531659141344cd1fd0a4f28419497f9722a3daafe3b4186f6b6457e060405160405180910390a35050565b600073ffffffffffffffffffffffffffffffffffffffff168273ffffffffffffffffffffffffffffffffffffffff1603610e395760006040517fced3e100000000000000000000000000000000000000000000000000000000008152600401610e309190612172565b60405180910390fd5b80600160008573ffffffffffffffffffffffffffffffffffffffff1673ffffffffffffffffffffffffffffffffffffffff16815260200190815260200160002060008473ffffffffffffffffffffffffffffffffffffffff1673ffffffffffffffffffffffffffffffffffffffff16815260200190815260200160002060006101000a81548160ff0219169083151502179055508173ffffffffffffffffffffffffffffffffffffffff168373ffffffffffffffffffffffffffffffffffffffff167f17307eab39ab6107e8899845ad3d59bd9653f200f220920489ca2b5937696c3183604051610f2a9190611a85565b60405180910390a3505050565b600073ffffffffffffffffffffffffffffffffffffffff168473ffffffffffffffffffffffffffffffffffffffff1603610fa95760006040517f57f447ce000000000000000000000000000000000000000000000000000000008152600401610fa09190612172565b60405180910390fd5b600080610fb6858561118d565b91509150610fc86000878484876110db565b505050505050565b600073ffffffffffffffffffffffffffffffffffffffff168473ffffffffffffffffffffffffffffffffffffffff16036110425760006040517f57f447ce0000000000000000000000000000000000000000000000000000000081526004016110399190612172565b60405180910390fd5b600073ffffffffffffffffffffffffffffffffffffffff168573ffffffffffffffffffffffffffffffffffffffff16036110b45760006040517f01a835140000000000000000000000000000000000000000000000000000000081526004016110ab9190612172565b60405180910390fd5b6000806110c1858561118d565b915091506110d287878484876110db565b50505050505050565b6110e7858585856111bd565b600073ffffffffffffffffffffffffffffffffffffffff168473ffffffffffffffffffffffffffffffffffffffff1614611186576000611125610b52565b90506001845103611175576000611146600086610c6690919063ffffffff16565b9050600061115e600086610c6690919063ffffffff16565b905061116e83898985858961156b565b5050611184565b61118381878787878761171f565b5b505b5050505050565b60608060405191506001825283602083015260408201905060018152826020820152604081016040529250929050565b805182511461120757815181516040517f5b0599910000000000000000000000000000000000000000000000000000000081526004016111fe929190612409565b60405180910390fd5b6000611211610b52565b905060005b83518110156114265760006112348286610c6690919063ffffffff16565b9050600061124b8386610c6690919063ffffffff16565b9050600073ffffffffffffffffffffffffffffffffffffffff168873ffffffffffffffffffffffffffffffffffffffff161461137857600080600084815260200190815260200160002060008a73ffffffffffffffffffffffffffffffffffffffff1673ffffffffffffffffffffffffffffffffffffffff1681526020019081526020016000205490508181101561132057888183856040517f03dee4c50000000000000000000000000000000000000000000000000000000081526004016113179493929190612756565b60405180910390fd5b81810360008085815260200190815260200160002060008b73ffffffffffffffffffffffffffffffffffffffff1673ffffffffffffffffffffffffffffffffffffffff16815260200190815260200160002081905550505b600073ffffffffffffffffffffffffffffffffffffffff168773ffffffffffffffffffffffffffffffffffffffff1614611413578060008084815260200190815260200160002060008973ffffffffffffffffffffffffffffffffffffffff1673ffffffffffffffffffffffffffffffffffffffff168152602001908152602001600020600082825461140b919061279b565b925050819055505b50508061141f90612490565b9050611216565b5060018351036114e5576000611446600085610c6690919063ffffffff16565b9050600061145e600085610c6690919063ffffffff16565b90508573ffffffffffffffffffffffffffffffffffffffff168773ffffffffffffffffffffffffffffffffffffffff168473ffffffffffffffffffffffffffffffffffffffff167fc3d58168c5ae7397731d063d5bbf3d657854427343f4c083240f7aacaa2d0f6285856040516114d6929190612409565b60405180910390a45050611564565b8373ffffffffffffffffffffffffffffffffffffffff168573ffffffffffffffffffffffffffffffffffffffff168273ffffffffffffffffffffffffffffffffffffffff167f4a39dc06d4c0dbc64b70af90fd698a233a518aa5d07e595d983b8c0526c8f7fb868660405161155b9291906127cf565b60405180910390a45b5050505050565b60008473ffffffffffffffffffffffffffffffffffffffff163b1115611717578373ffffffffffffffffffffffffffffffffffffffff1663f23a6e6187878686866040518663ffffffff1660e01b81526004016115cc95949392919061285b565b6020604051808303816000875af192505050801561160857506040513d601f19601f8201168201806040525081019061160591906128ca565b60015b61168c573d8060008114611638576040519150601f19603f3d011682016040523d82523d6000602084013e61163d565b606091505b50600081510361168457846040517f57f447ce00000000000000000000000000000000000000000000000000000000815260040161167b9190612172565b60405180910390fd5b805181602001fd5b63f23a6e6160e01b7bffffffffffffffffffffffffffffffffffffffffffffffffffffffff1916817bffffffffffffffffffffffffffffffffffffffffffffffffffffffff19161461171557846040517f57f447ce00000000000000000000000000000000000000000000000000000000815260040161170c9190612172565b60405180910390fd5b505b505050505050565b60008473ffffffffffffffffffffffffffffffffffffffff163b11156118cb578373ffffffffffffffffffffffffffffffffffffffff1663bc197c8187878686866040518663ffffffff1660e01b81526004016117809594939291906128f7565b6020604051808303816000875af19250505080156117bc57506040513d601f19601f820116820180604052508101906117b991906128ca565b60015b611840573d80600081146117ec576040519150601f19603f3d011682016040523d82523d6000602084013e6117f1565b606091505b50600081510361183857846040517f57f447ce00000000000000000000000000000000000000000000000000000000815260040161182f9190612172565b60405180910390fd5b805181602001fd5b63bc197c8160e01b7bffffffffffffffffffffffffffffffffffffffffffffffffffffffff1916817bffffffffffffffffffffffffffffffffffffffffffffffffffffffff1916146118c957846040517f57f447ce0000000000000000000000000000000000000000000000000000000081526004016118c09190612172565b60405180910390fd5b505b505050505050565b6000604051905090565b600080fd5b600080fd5b600073ffffffffffffffffffffffffffffffffffffffff82169050919050565b6000611912826118e7565b9050919050565b61192281611907565b811461192d57600080fd5b50565b60008135905061193f81611919565b92915050565b6000819050919050565b61195881611945565b811461196357600080fd5b50565b6000813590506119758161194f565b92915050565b60008060408385031215611992576119916118dd565b5b60006119a085828601611930565b92505060206119b185828601611966565b9150509250929050565b6119c481611945565b82525050565b60006020820190506119df60008301846119bb565b92915050565b60007fffffffff0000000000000000000000000000000000000000000000000000000082169050919050565b611a1a816119e5565b8114611a2557600080fd5b50565b600081359050611a3781611a11565b92915050565b600060208284031215611a5357611a526118dd565b5b6000611a6184828501611a28565b91505092915050565b60008115159050919050565b611a7f81611a6a565b82525050565b6000602082019050611a9a6000830184611a76565b92915050565b600081519050919050565b600082825260208201905092915050565b60005b83811015611ada578082015181840152602081019050611abf565b60008484015250505050565b6000601f19601f8301169050919050565b6000611b0282611aa0565b611b0c8185611aab565b9350611b1c818560208601611abc565b611b2581611ae6565b840191505092915050565b60006020820190508181036000830152611b4a8184611af7565b905092915050565b600060208284031215611b6857611b676118dd565b5b6000611b7684828501611966565b91505092915050565b600080fd5b7f4e487b7100000000000000000000000000000000000000000000000000000000600052604160045260246000fd5b611bbc82611ae6565b810181811067ffffffffffffffff82111715611bdb57611bda611b84565b5b80604052505050565b6000611bee6118d3565b9050611bfa8282611bb3565b919050565b600067ffffffffffffffff821115611c1a57611c19611b84565b5b602082029050602081019050919050565b600080fd5b6000611c43611c3e84611bff565b611be4565b90508083825260208201905060208402830185811115611c6657611c65611c2b565b5b835b81811015611c8f5780611c7b8882611966565b845260208401935050602081019050611c68565b5050509392505050565b600082601f830112611cae57611cad611b7f565b5b8135611cbe848260208601611c30565b91505092915050565b600080fd5b600067ffffffffffffffff821115611ce757611ce6611b84565b5b611cf082611ae6565b9050602081019050919050565b82818337600083830152505050565b6000611d1f611d1a84611ccc565b611be4565b905082815260208101848484011115611d3b57611d3a611cc7565b5b611d46848285611cfd565b509392505050565b600082601f830112611d6357611d62611b7f565b5b8135611d73848260208601611d0c565b91505092915050565b600080600080600060a08688031215611d9857611d976118dd565b5b6000611da688828901611930565b9550506020611db788828901611930565b945050604086013567ffffffffffffffff811115611dd857611dd76118e2565b5b611de488828901611c99565b935050606086013567ffffffffffffffff811115611e0557611e046118e2565b5b611e1188828901611c99565b925050608086013567ffffffffffffffff811115611e3257611e316118e2565b5b611e3e88828901611d4e565b9150509295509295909350565b600067ffffffffffffffff821115611e6657611e65611b84565b5b602082029050602081019050919050565b6000611e8a611e8584611e4b565b611be4565b90508083825260208201905060208402830185811115611ead57611eac611c2b565b5b835b81811015611ed65780611ec28882611930565b845260208401935050602081019050611eaf565b5050509392505050565b600082601f830112611ef557611ef4611b7f565b5b8135611f05848260208601611e77565b91505092915050565b60008060408385031215611f2557611f246118dd565b5b600083013567ffffffffffffffff811115611f4357611f426118e2565b5b611f4f85828601611ee0565b925050602083013567ffffffffffffffff811115611f7057611f6f6118e2565b5b611f7c85828601611c99565b9150509250929050565b600081519050919050565b600082825260208201905092915050565b6000819050602082019050919050565b611fbb81611945565b82525050565b6000611fcd8383611fb2565b60208301905092915050565b6000602082019050919050565b6000611ff182611f86565b611ffb8185611f91565b935061200683611fa2565b8060005b8381101561203757815161201e8882611fc1565b975061202983611fd9565b92505060018101905061200a565b5085935050505092915050565b6000602082019050818103600083015261205e8184611fe6565b905092915050565b600067ffffffffffffffff82111561208157612080611b84565b5b61208a82611ae6565b9050602081019050919050565b60006120aa6120a584612066565b611be4565b9050828152602081018484840111156120c6576120c5611cc7565b5b6120d1848285611cfd565b509392505050565b600082601f8301126120ee576120ed611b7f565b5b81356120fe848260208601612097565b91505092915050565b6000806040838503121561211e5761211d6118dd565b5b600061212c85828601611966565b925050602083013567ffffffffffffffff81111561214d5761214c6118e2565b5b612159858286016120d9565b9150509250929050565b61216c81611907565b82525050565b60006020820190506121876000830184612163565b92915050565b61219681611a6a565b81146121a157600080fd5b50565b6000813590506121b38161218d565b92915050565b600080604083850312156121d0576121cf6118dd565b5b60006121de85828601611930565b92505060206121ef858286016121a4565b9150509250929050565b60008060008060808587031215612213576122126118dd565b5b600061222187828801611930565b945050602061223287828801611966565b935050604061224387828801611966565b925050606085013567ffffffffffffffff811115612264576122636118e2565b5b612270878288016120d9565b91505092959194509250565b60008060408385031215612293576122926118dd565b5b60006122a185828601611930565b92505060206122b285828601611930565b9150509250929050565b600080600080600060a086880312156122d8576122d76118dd565b5b60006122e688828901611930565b95505060206122f788828901611930565b945050604061230888828901611966565b935050606061231988828901611966565b925050608086013567ffffffffffffffff81111561233a576123396118e2565b5b61234688828901611d4e565b9150509295509295909350565b600060208284031215612369576123686118dd565b5b600061237784828501611930565b91505092915050565b7f4e487b7100000000000000000000000000000000000000000000000000000000600052602260045260246000fd5b600060028204905060018216806123c757607f821691505b6020821081036123da576123d9612380565b5b50919050565b60006040820190506123f56000830185612163565b6124026020830184612163565b9392505050565b600060408201905061241e60008301856119bb565b61242b60208301846119bb565b9392505050565b7f4e487b7100000000000000000000000000000000000000000000000000000000600052603260045260246000fd5b7f4e487b7100000000000000000000000000000000000000000000000000000000600052601160045260246000fd5b600061249b82611945565b91507fffffffffffffffffffffffffffffffffffffffffffffffffffffffffffffffff82036124cd576124cc612461565b5b600182019050919050565b60008190508160005260206000209050919050565b60006020601f8301049050919050565b600082821b905092915050565b60006008830261253a7fffffffffffffffffffffffffffffffffffffffffffffffffffffffffffffffff826124fd565b61254486836124fd565b95508019841693508086168417925050509392505050565b6000819050919050565b600061258161257c61257784611945565b61255c565b611945565b9050919050565b6000819050919050565b61259b83612566565b6125af6125a782612588565b84845461250a565b825550505050565b600090565b6125c46125b7565b6125cf818484612592565b505050565b5b818110156125f3576125e86000826125bc565b6001810190506125d5565b5050565b601f82111561263857612609816124d8565b612612846124ed565b81016020851015612621578190505b61263561262d856124ed565b8301826125d4565b50505b505050565b600082821c905092915050565b600061265b6000198460080261263d565b1980831691505092915050565b6000612674838361264a565b9150826002028217905092915050565b61268d82611aa0565b67ffffffffffffffff8111156126a6576126a5611b84565b5b6126b082546123af565b6126bb8282856125f7565b600060209050601f8311600181146126ee57600084156126dc578287015190505b6126e68582612668565b86555061274e565b601f1984166126fc866124d8565b60005b82811015612724578489015182556001820191506020850194506020810190506126ff565b86831015612741578489015161273d601f89168261264a565b8355505b6001600288020188555050505b505050505050565b600060808201905061276b6000830187612163565b61277860208301866119bb565b61278560408301856119bb565b61279260608301846119bb565b95945050505050565b60006127a682611945565b91506127b183611945565b92508282019050808211156127c9576127c8612461565b5b92915050565b600060408201905081810360008301526127e98185611fe6565b905081810360208301526127fd8184611fe6565b90509392505050565b600081519050919050565b600082825260208201905092915050565b600061282d82612806565b6128378185612811565b9350612847818560208601611abc565b61285081611ae6565b840191505092915050565b600060a0820190506128706000830188612163565b61287d6020830187612163565b61288a60408301866119bb565b61289760608301856119bb565b81810360808301526128a98184612822565b90509695505050505050565b6000815190506128c481611a11565b92915050565b6000602082840312156128e0576128df6118dd565b5b60006128ee848285016128b5565b91505092915050565b600060a08201905061290c6000830188612163565b6129196020830187612163565b818103604083015261292b8186611fe6565b9050818103606083015261293f8185611fe6565b905081810360808301526129538184612822565b9050969550505050505056fea2646970667358221220bd5ae9e4cdc3eec16d25a7ff4d028b99b78813d8e9dfbee2503fd71a9173c45d64736f6c63430008140033",
  "linkReferences": {},
  "deployedLinkReferences": {}
}